:020000040000FA
:06000000D2EF01F0120036
:0A0006000100C203000060000000CA
:0400100014000000D8
:0C001400D9CFE6FFE1CFD9FF030EE126B3
:10002000300EDF6E010EDB6A020EDB6A926A936AA3
:10003000946A190EE66E440EE66EEF0EE66E28EC3C
:1000400001F0E552E552E552200EE66EE66A2C0E0E
:10005000E66EE3EC00F0E552E552E5529EAA30D0A0
:100060008CEC01F0DF6E300EDF5C04E1010EDB6A28
:10007000020EDB6A310EDF5C05E1010EF36EDB6E12
:10008000020EDB6A320EDF5C07E1020EF36E010E38
:10009000F3CFDBFF020EDB6A330EDF5C07E1030EFA
:1000A000F36E010EF3CFDBFF020EDB6A340EDF5C72
:1000B00007E1040EF36E010EF3CFDBFF020EDB6AE5
:1000C0008A9A010EE76EDBCF14F0020EDBCF15F03B
:1000D000E7501426000E15220A0E086E096A14C095
:1000E0000DF015C00EF05FEC01F00650E66EABECC3
:1000F00001F0E5528A9A010EE76EDBCF14F0020E92
:10010000DBCF15F0E7501426000E15220A0E086EFC
:10011000096A14C00DF015C00EF05FEC01F0065036
:08012000E66EABEC01F099D78B
:08012800060EF66E000EF76EE4
:10013000000EF86E00010900F550796F0900F550C6
:100140007A6F03E1796701D03DD00900F550746FF3
:100150000900F550756F0900F550766F0900090028
:10016000F550E96E0900F550EA6E09000900090032
:10017000F550776F0900F550786F09000900F6CF48
:100180007BF0F7CF7CF0F8CF7DF074C0F6FF75C040
:10019000F7FF76C0F8FF0001775302E1785307E0DC
:1001A0000900F550EE6E7707F8E27807F9D77BC0C3
:1001B000F6FF7CC0F7FF7DC0F8FF00017907000E55
:0601C0007A5BBFD71200BC
:0A01C600D9CFE6FFDACFE6FFE1CF64
:1001D000D9FFE2CFDAFFAC6AAB6AFD0EDBB0AC88C8
:1001E000DBA202D0AC8CAB8CDBB4AC8EDBA602D035
:1001F000AB8801D0AB8ADBB8AC849E98DBBAAB8607
:10020000DBAC02D09D8A01D09D9A9E9ADBAE02D0D3
:100210009D8801D09D98FB0EDB50AF6EFB0EFC0E4F
:10022000DBCF15F015C014F0156A1450B06EAC8A0F
:10023000AB8E949C948EAC50100B04E0AC50800BB1
:1002400001E1948CE552E5CFDAFFE7CFD9FF120048
:10025000D9CFE6FFDACFE6FFE1CFD9FFE2CFDAFF71
:10026000C26AC06AFC0EDB407F0B3C0BC26EFC0E08
:10027000DB38F00B300B146EFB0EDB500F0B141041
:10028000C16EFD0EDB50040DF350380B156EFD0EE4
:10029000DB380F0B070B146EFD0EDB50800B1410B8
:1002A0001510C06EFC0EDBAE03D09E9C9D8CF28CB4
:0E02B000C280E552E5CFDAFFE7CFD9FF12009A
:0202BE0009C075
:1002C00013F008C012F008500D02F4CF07F0F3CF7E
:1002D00006F009500E02F4CF09F0F3CF08F00D023A
:1002E000F3500726F4500822E86A092212500E0241
:1002F000F3500726F4500822E86A09220EAE85EF73
:1003000001F01250085E1350095A13AE000C0D5044
:08031000085E0E50095A000CB2
:08031800D9CFE6FFDACFE6FFC2
:10032000E1CFD9FFE2CFDAFFE652F20E00017E17ED
:10033000ABAC03D07E91ABB07E81ABB47E85ABB26B
:100340007E87AE50DF6EDF50E552E552E5CFDAFF33
:06035000E7CFD9FF120007
:0A035600FF0EE350176EEF0E01D00A
:10036000F30EE76EE72EB2EF01F00C0E166EE76AA1
:10037000E72EB8EF01F0162EB7EF01F0172EB0EF11
:0403800001F0120076
:0C038400000EF36E00EE00F0080E01D831
:100390001200EA6002D0EE6AFCD7F350E960120066
:0403A000EE6AFCD72E
:0C03A40013EE00F023EE00F0F86A019C5C
:1003B00094EC00F0E0EC01F00AEC00F0FBD7120046
:0203C000120029
:0E03C20077617761736564616161616121211A
:0603D00021212121210082
:020000040030CA
:0100000024DB
:010001000CF2
:0100020030CD
:010003001FDD
:010005008179
:010006008079
:010008000FE8
:01000900C036
:01000A000FE6
:01000B00E014
:01000C000FE4
:01000D0040B2
:00000001FF
