:020000040000FA
:060000000FEF06F01200F4
:0A00060001004A0C00006000000039
:040010001D000000CF
:0C001400D9CFE6FFE1CFD9FF210EE12695
:10002000300EDF6E010EDB6A020EDB6A926A936AA3
:10003000946A190EE66E440EE66EEF0EE66E83ECE1
:1000400005F0E552E552E5520C0EE66EE66A2C0E1E
:10005000E66E3EEC05F0E552E552E5528A7A140E62
:10006000E66EBAEC05F0E552C70EE66EE8EC05F078
:10007000E55222EC06F01DEC06F00009FCE1C4CFCD
:1000800063F0C3CF64F0CF0EE66EE8EC05F0E55206
:1000900022EC06F01DEC06F00009FCE1C4CF65F08F
:1000A000C3CF66F0D70EE66EE8EC05F0E55222EC21
:1000B00006F01DEC06F00009FCE1C4CF67F0C3CFE9
:1000C00068F0DF0EE66EE8EC05F0E55222EC06F093
:1000D0001DEC06F00009FCE1C4CF69F0C3CF6AF063
:1000E00060C0E6FFD1EC05F0E552ACA2FED761C0DE
:1000F000E6FFD1EC05F0E552ACA2FED762C0E6FF08
:10010000D1EC05F0E552ACA2FED763C0E6FFD1EC1E
:1001100005F0E552ACA2FED764C0E6FFD1EC05F0D5
:10012000E552ACA2FED765C0E6FFD1EC05F0E55282
:10013000ACA2FED766C0E6FFD1EC05F0E552ACA25A
:10014000FED767C0E6FFD1EC05F0E552ACA2FED7C2
:1001500068C0E6FFD1EC05F0E552ACA2FED769C05D
:10016000E6FFD1EC05F0E552ACA2FED76AC0E6FF8F
:10017000D1EC05F0E552ACA2FED7C70EE66EE8EC76
:1001800005F0E55222EC06F01DEC06F00009FCE15A
:10019000C4CF63F0C3CF64F0CF0EE66EE8EC05F099
:1001A000E55222EC06F01DEC06F00009FCE1C4CF9C
:1001B00065F0C3CF66F0D70EE66EE8EC05F0E552C9
:1001C00022EC06F01DEC06F00009FCE1C4CF67F05C
:1001D000C3CF68F0DF0EE66EE8EC05F0E55222ECE6
:1001E00006F01DEC06F00009FCE1C4CF69F0C3CFB6
:1001F0006AF0C70EE66EE8EC05F0E55222EC06F078
:100200001DEC06F00009FCE1C4CF63F0C3CF64F03D
:10021000CF0EE66EE8EC05F0E55222EC06F01DECA0
:1002200006F00009FCE1C4CF65F0C3CF66F0D70E3D
:10023000E66EE8EC05F0E55222EC06F01DEC06F067
:100240000009FCE1C4CF67F0C3CF68F0DF0EE66EB3
:10025000E8EC05F0E55222EC06F01DEC06F0000992
:10026000FCE1C4CF69F0C3CF6AF0C70EE66EE8ECDC
:1002700005F0E55222EC06F01DEC06F00009FCE169
:10028000C4CF63F0C3CF64F0CF0EE66EE8EC05F0A8
:10029000E55222EC06F01DEC06F00009FCE1C4CFAB
:1002A00065F0C3CF66F0D70EE66EE8EC05F0E552D8
:1002B00022EC06F01DEC06F00009FCE1C4CF67F06B
:1002C000C3CF68F0DF0EE66EE8EC05F0E55222ECF5
:1002D00006F01DEC06F00009FCE1C4CF69F0C3CFC5
:1002E0006AF0C70EE66EE8EC05F0E55222EC06F087
:1002F0001DEC06F00009FCE1C4CF63F0C3CF64F04D
:10030000CF0EE66EE8EC05F0E55222EC06F01DECAF
:1003100006F00009FCE1C4CF65F0C3CF66F0D70E4C
:10032000E66EE8EC05F0E55222EC06F01DEC06F076
:100330000009FCE1C4CF67F0C3CF68F0DF0EE66EC2
:10034000E8EC05F0E55222EC06F01DEC06F00009A1
:10035000FCE1C4CF69F0C3CF6AF0C70EE66EE8ECEB
:1003600005F0E55222EC06F01DEC06F00009FCE178
:10037000C4CF63F0C3CF64F0CF0EE66EE8EC05F0B7
:10038000E55222EC06F01DEC06F00009FCE1C4CFBA
:1003900065F0C3CF66F0D70EE66EE8EC05F0E552E7
:1003A00022EC06F01DEC06F00009FCE1C4CF67F07A
:1003B000C3CF68F0DF0EE66EE8EC05F0E55222EC04
:1003C00006F01DEC06F00009FCE1C4CF69F0C3CFD4
:1003D0006AF0C70EE66EE8EC05F0E55222EC06F096
:1003E0001DEC06F00009FCE1C4CF63F0C3CF64F05C
:1003F000CF0EE66EE8EC05F0E55222EC06F01DECBF
:1004000006F00009FCE1C4CF65F0C3CF66F0D70E5B
:10041000E66EE8EC05F0E55222EC06F01DEC06F085
:100420000009FCE1C4CF67F0C3CF68F0DF0EE66ED1
:10043000E8EC05F0E55222EC06F01DEC06F00009B0
:10044000FCE1C4CF69F0C3CF6AF0C70EE66EE8ECFA
:1004500005F0E55222EC06F01DEC06F00009FCE187
:10046000C4CF63F0C3CF64F0CF0EE66EE8EC05F0C6
:10047000E55222EC06F01DEC06F00009FCE1C4CFC9
:1004800065F0C3CF66F0D70EE66EE8EC05F0E552F6
:1004900022EC06F01DEC06F00009FCE1C4CF67F089
:1004A000C3CF68F0DF0EE66EE8EC05F0E55222EC13
:1004B00006F01DEC06F00009FCE1C4CF69F0C3CFE3
:1004C0006AF0C70EE66EE8EC05F0E55222EC06F0A5
:1004D0001DEC06F00009FCE1C4CF63F0C3CF64F06B
:1004E000CF0EE66EE8EC05F0E55222EC06F01DECCE
:1004F00006F00009FCE1C4CF65F0C3CF66F0D70E6B
:10050000E66EE8EC05F0E55222EC06F01DEC06F094
:100510000009FCE1C4CF67F0C3CF68F0DF0EE66EE0
:10052000E8EC05F0E55222EC06F01DEC06F00009BF
:10053000FCE1C4CF69F0C3CF6AF0C70EE66EE8EC09
:1005400005F0E55222EC06F01DEC06F00009FCE196
:10055000C4CF63F0C3CF64F0CF0EE66EE8EC05F0D5
:10056000E55222EC06F01DEC06F00009FCE1C4CFD8
:1005700065F0C3CF66F0D70EE66EE8EC05F0E55205
:1005800022EC06F01DEC06F00009FCE1C4CF67F098
:10059000C3CF68F0DF0EE66EE8EC05F0E55222EC22
:1005A00006F01DEC06F00009FCE1C4CF69F0C3CFF2
:1005B0006AF0C70EE66EE8EC05F0E55222EC06F0B4
:1005C0001DEC06F00009FCE1C4CF63F0C3CF64F07A
:1005D000CF0EE66EE8EC05F0E55222EC06F01DECDD
:1005E00006F00009FCE1C4CF65F0C3CF66F0D70E7A
:1005F000E66EE8EC05F0E55222EC06F01DEC06F0A4
:100600000009FCE1C4CF67F0C3CF68F0DF0EE66EEF
:10061000E8EC05F0E55222EC06F01DEC06F00009CE
:10062000FCE1C4CF69F0C3CF6AF063C007F0E0EC2F
:1006300003F005C014F006C015F007C016F008C09E
:1006400017F00A6A0B6A200E0C6E410E0D6EEFEC6D
:1006500003F042EC04F0030E07C0DBFF64C007F0B8
:10066000E0EC03F005C014F006C015F007C016F06A
:1006700008C017F00A6A0B6A200E0C6E410E0D6E50
:10068000EFEC03F042EC04F0040E07C0DBFF65C0A2
:1006900007F0E0EC03F005C014F006C015F007C049
:1006A00016F008C017F00A6A0B6A200E0C6E410E95
:1006B0000D6EEFEC03F042EC04F0050E07C0DBFF1B
:1006C00066C007F0E0EC03F005C014F006C015F0BA
:1006D00007C016F008C017F00A6A0B6A200E0C6EED
:1006E000410E0D6EEFEC03F042EC04F0060E07C075
:1006F000DBFF67C007F0E0EC03F005C014F006C0B4
:1007000015F007C016F008C017F00A6A0B6A200E31
:100710000C6E410E0D6EEFEC03F042EC04F0070E90
:1007200007C0DBFF68C007F0E0EC03F005C014F081
:1007300006C015F007C016F008C017F00A6A0B6A69
:10074000200E0C6E410E0D6EEFEC03F042EC04F047
:10075000080E07C0DBFF69C007F0E0EC03F005C03E
:1007600014F006C015F007C016F008C017F00A6AAA
:100770000B6A200E0C6E410E0D6EEFEC03F042EC96
:1007800004F0090E07C0DBFF6AC007F0E0EC03F0DD
:1007900005C014F006C015F007C016F008C017F029
:1007A0000A6A0B6A200E0C6E410E0D6EEFEC03F020
:0C07B00042EC04F00A0E07C0DBFF50D43E
:0407BC000F9E05D0B7
:1007C0000F9E07AE02D0076C0F8E07C001F0006AC3
:1007D000136A126A860E026E036A85EF04F00F6ACE
:1007E000C1EC04F0D9EC04F00FB669EF04F00FA2ED
:1007F00005D00FBA69EF04F070EF04F00FBA7CEF88
:1008000004F00FA005D00FB869EF04F07CEF04F0FE
:100810000FB870EF04F0036A7F0E0824026EE86AD6
:1008200003220D50025EE86A035A1A0E106E086A1F
:10083000126A136A006A016A0A50055E0B50065A72
:100840000C50075A000E085A09E70A5005260B50AB
:1008500006220C500722000E082201D0128AD890DE
:100860000536063607360836D89012361336003667
:100870000136102EE1D7075006100510D8A4128AB1
:1008800085EF04F00F6AC1EC04F00FB64CEF04F0F2
:100890000FA20AD00FB403D07F0E076E19D0800EBE
:1008A000076E16D0076A14D00FB0FCD7870E086009
:1008B000F1D77E0E0864F6D7860E085C04E0D89067
:1008C0000732082AF9D70FA403D0076C07AEEAD77E
:1008D00012007F0E086EFF0E076E066E056E120088
:1008E0007F0E0FBEFF0E086E02D07F0E086E800EC8
:1008F000076E066A056AF3D70FAE04D0800E086E45
:10090000076AF7D7086A076AF4D701500010131076
:100910001210F8E003BEF0D701BE0CD00250031055
:10092000EBE0D89012361336003601360206D8A016
:100930000306F2D70350D4E10228D2E012AE11D060
:100940007F0E121402E113A00CD0132AE86A0022D1
:10095000012207E3D880013200321332022A022832
:10096000BFE00250C9E013C005F000C006F001343A
:10097000076E0230086E0732089E0FBE088E6FEFBA
:1009800004F00736083602E30F840F7E06E10F807D
:10099000086A076A066A056A1200082803E0D88018
:1009A00007321200D890073202E10F8212000F8640
:1009B00012000C360D3602E30F8C0F7E06E10F8815
:1009C0000D6A0C6A0B6A0A6A12000D2803E0D880CF
:0E09D0000C321200D8900C32EAE10F8A1200AD
:0209DE00060E03
:1009E000F66E000EF76E000EF86E00010900F5506D
:1009F000826F0900F550836F03E1826701D03DD01B
:100A00000900F5507D6F0900F5507E6F0900F55023
:100A10007F6F09000900F550E96E0900F550EA6E94
:100A2000090009000900F550806F0900F550816F39
:100A300009000900F6CF84F0F7CF85F0F8CF86F0F3
:100A40007DC0F6FF7EC0F7FF7FC0F8FF0001805336
:100A500002E1815307E00900F550EE6E8007F8E2ED
:100A60008107F9D784C0F6FF85C0F7FF86C0F8FF7D
:0C0A700000018207000E835BBFD712005C
:040A7C00D9CFE6FFE9
:100A8000DACFE6FFE1CFD9FFE2CFDAFFAC6AAB6A9B
:100A9000FD0EDBB0AC88DBA202D0AC8CAB8CDBB43F
:100AA000AC8EDBA602D0AB8801D0AB8ADBB8AC84BD
:100AB0009E98DBBAAB86DBAC02D09D8A01D09D9AB2
:100AC0009E9ADBAE02D09D8801D09D98FB0EDB5034
:100AD000AF6EFB0EFC0EDBCF15F015C014F0156ADF
:100AE0001450B06EAC8AAB8E949C948EAC50100BAC
:100AF00004E0AC50800B01E1948CE552E5CFDAFFC5
:060B0000E7CFD9FF12004F
:0A0B0600D9CFE6FFDACFE6FFE1CF1A
:100B1000D9FFE2CFDAFFC26AC06AFC0EDB407F0B6E
:100B20003C0BC26EFC0EDB38F00B300B146EFB0E70
:100B3000DB500F0B1410C16EFD0EDB50040DF35093
:100B4000380B156EFD0EDB380F0B070B146EFD0E08
:100B5000DB50800B14101510C06EFC0EDBAE03D002
:100B60009E9C9D8CF28CC280E552E5CFDAFFE7CFE8
:040B7000D9FF120097
:0C0B7400FF0EE350196EEF0E01D0F30EDF
:100B8000E76EE72EC1EF05F00C0E186EE76AE72E50
:100B9000C7EF05F0182EC6EF05F0192EBFEF05F0D0
:020BA000120041
:0E0BA200D9CFE6FFDACFE6FFE1CFD9FFE2CFF1
:100BB000DAFFACAC04D0AC90000187B3AC80FD0E82
:100BC000DB50AD6EE552E5CFDAFFE7CFD9FF12007B
:100BD000D9CFE6FFDACFE6FFE1CFD9FFE2CFDAFFE8
:100BE000C30EC214146EFD0EDB407F0B3C0B1410C1
:0E0BF000C26EE552E5CFDAFFE7CFD9FF120063
:020BFE00000EE7
:100C0000F36E00EE00F0080E01D81200EA6002D088
:0E0C1000EE6AFCD7F350E9601200EE6AFCD7E2
:020C1E0013EED3
:100C200000F023EE00F0F86A0F9CEFEC04F024ECE7
:0A0C300006F00AEC00F0FBD71200FA
:060C3A00C250020B01E0B4
:040C4000010E12008F
:040C4400C282120056
:020C4800120098
:060C4A00746F700606063F
:100C5000060606060677617365646161616161215C
:070C600021212121212100C7
:020000040030CA
:0100000024DB
:010001000CF2
:0100020030CD
:010003001FDD
:010005008179
:010006008079
:010008000FE8
:01000900C036
:01000A000FE6
:01000B00E014
:01000C000FE4
:01000D0040B2
:00000001FF
