:020000040000FA
:0600000031EF02F01200D6
:020006000000F8
:08000800D9CFE6FFE1CFD9FFDB
:100010003C0EE126D950010FE96EDACFEAFF0D0E52
:10002000EE6E0A0EEE6E4F0EEE6E4E0EEE6EEE6A37
:10003000D950060FE96EDACFEAFF0D0EEE6E0A0E0A
:10004000EE6E4F0EEE6E460EEE6EEE6EEE6AD9500E
:100050000C0FE96EDACFEAFF660EEE6E6C0EEE6EF6
:10006000610EEE6E670EEE6E200EEE6E690EEE6E97
:10007000730EEE6E200EEE6E300EEE6E0D0EEE6E08
:100080000A0EEE6EEE6AD950180FE96EDACFEAFF6B
:10009000660EEE6E6C0EEE6E610EEE6E670EEE6E1E
:1000A000200EEE6E690EEE6E730EEE6E200EEE6E8C
:1000B000310EEE6E0D0EEE6E0A0EEE6EEE6AD95039
:1000C000240FE96EDACFEAFF660EEE6E6C0EEE6E6E
:1000D000610EEE6E670EEE6E200EEE6E690EEE6E27
:1000E000730EEE6E200EEE6E320EEE6E0D0EEE6E96
:1000F0000A0EEE6EEE6AD950300FE96EDACFEAFFE3
:10010000640EEE6E650EEE6E660EEE6E610EEE6EB7
:10011000750EEE6E6C0EEE6E740EEE6E0D0EEE6ED5
:100120000A0EEE6EEE6A3A0EDB6A3B0EDB6A926AEC
:10013000936A946A0C0EE66EE66A2C0EE66E69EC23
:1001400001F0E552E552E5529EAA18D0D4EC01F038
:10015000DF6E300EDF5C0EE0310EDF5C02E1010E7F
:1001600004D0320EDF5C06E1020EF36E3A0EF3CFDE
:10017000DBFF02D03A0EDB6A3B0EDB6AD9503A0F46
:10018000E96EDACFEAFFEE50ED100DE18A9AE66AE9
:10019000F3EC01F0E5528A8AE66AF3EC01F0E552ED
:1001A000D9500C0F40D0D9503A0FE96EDACFEAFFA0
:1001B000010EEE1811E1ED500FE18A9A280EE66E5D
:1001C000F3EC01F0E5528A8A280EE66EF3EC01F0BA
:1001D000E552D950180F27D0D9503A0FE96EDACF2F
:1001E000EAFF020EEE1811E1ED500FE18A9A960E29
:1001F000E66EF3EC01F0E5528A8A960EE66EF3ECB9
:1002000001F0E552D950240F0ED08A9A640EE66EA2
:10021000F3EC01F0E5528A8A640EE66EF3EC01F02D
:10022000E552D950300FE66E000EDA20E66EAEECE5
:0402300001F088D77A
:0C023400060EF66E000EF76E000EF86E5F
:1002400000010900F550656F0900F550666F03E184
:10025000656701D03DD00900F550606F0900F55089
:10026000616F0900F550626F09000900F550E96EF1
:100270000900F550EA6E090009000900F550636FA6
:100280000900F550646F09000900F6CF67F0F7CF59
:1002900068F0F8CF69F060C0F6FF61C0F7FF62C098
:1002A000F8FF0001635302E1645307E00900F550D1
:1002B000EE6E6307F8E26407F9D767C0F6FF68C01F
:1002C000F7FF69C0F8FF00016507000E665BBFD746
:0202D00012001A
:0E02D200D9CFE6FFDACFE6FFE1CFD9FFE2CFCA
:1002E000DAFFAC6AAB6AFD0EDBB0AC88DBA202D0F1
:1002F000AC8CAB8CDBB4AC8EDBA602D0AB8801D06F
:10030000AB8ADBB8AC849E98DBBAAB86DBAC02D0A0
:100310009D8A01D09D9A9E9ADBAE02D09D8801D025
:100320009D98FB0EDB50AF6EFB0EFC0EDBCF03F097
:1003300003C002F0036A0250B06EAC8AAB8E949C8C
:10034000948EAC50100B04E0AC50800B01E1948C07
:0C035000E552E5CFDAFFE7CFD9FF12003D
:04035C00D9CFE6FF10
:10036000DACFE6FFE1CFD9FFE2CFDAFFACA2FED7CA
:10037000FC0EDBCFE9FFFD0EDBCFEAFFEF50E66EB0
:100380000AEC02F0E552FC0EDBCFE9FFDB2AFD0EA2
:10039000DBCFEAFF01E3DB2AEF50E8E1E552E5CFEE
:0803A000DAFFE7CFD9FF1200DC
:0803A800D9CFE6FFDACFE6FF32
:1003B000E1CFD9FFE2CFDAFFE652F20E00016A1771
:1003C000ABAC03D06A91ABB06A81ABB46A85ABB217
:1003D0006A87AE50DF6EDF50E552E552E5CFDAFFB7
:0603E000E7CFD9FF120077
:0A03E600FF0EE350056EEF0E01D08C
:1003F000F30EE76EE72EFAEF01F00C0E046EE76ADB
:10040000E72E00EF02F0042EFFEF01F0052EF8EFCB
:0404100001F01200E5
:0C041400D9CFE6FFDACFE6FFE1CFD9FF39
:10042000E2CFDAFFACAC04D0AC9000016AB3AC8090
:10043000FD0EDB50AD6EE552E5CFDAFFE7CFD9FF19
:020440001200A8
:0E044200000EF36E00EE00F0080E01D812005E
:10045000EA6002D0EE6AFCD7F350E9601200EE6A5F
:02046000FCD7C7
:0E04620013EE00F023EE00F0F86A019C1AEC95
:0E04700001F03FEC02F004EC00F0FBD71200AC
:02047E0012006A
:020000040030CA
:0100000021DE
:010001000CF2
:0100020030CD
:010003001FDD
:010005008179
:010006008079
:010008000FE8
:01000900C036
:01000A000FE6
:01000B00E014
:01000C000FE4
:01000D0040B2
:00000001FF
