:020000040000FA
:060000005EEF01F01200AA
:020006000000F8
:08000800060EF66E000EF76E05
:10001000000EF86E00010900F550656F0900F550FB
:10002000666F03E1656701D03DD00900F550606F50
:100030000900F550616F0900F550626F0900090071
:10004000F550E96E0900F550EA6E09000900090053
:10005000F550636F0900F550646F09000900F6CF91
:1000600067F0F7CF68F0F8CF69F060C0F6FF61C0C5
:10007000F7FF62C0F8FF0001635302E1645307E039
:100080000900F550EE6E6307F8E26407F9D767C020
:10009000F6FF68C0F7FF69C0F8FF00016507000EB2
:0600A000665BBFD71200F1
:0A00A600D9CFE6FFDACFE6FFE1CF85
:1000B000D9FFE2CFDAFFAC6AAB6AFD0EDBB0AC88E9
:1000C000DBA202D0AC8CAB8CDBB4AC8EDBA602D056
:1000D000AB8801D0AB8ADBB8AC849E98DBBAAB8628
:1000E000DBAC02D09D8A01D09D9A9E9ADBAE02D0F5
:1000F0009D8801D09D98FB0EDB50AF6EFB0EFC0E71
:10010000DBCF03F003C002F0036A0250B06EAC8A8A
:10011000AB8E949C948EAC50100B04E0AC50800BD2
:1001200001E1948CE552E5CFDAFFE7CFD9FF120069
:10013000D9CFE6FFE1CFD9FF0B0EE126D950010F51
:10014000E96EDACFEAFF0D0EEE6E0A0EEE6E490E84
:10015000EE6E6E0EEE6E700EEE6E750EEE6E740E30
:10016000EE6E3D0EEE6E200EEE6EEE6A926A936AB1
:10017000946A0C0EE66EE66A2C0EE66E53EC00F006
:10018000E552E552E5529EAAFED701EC01F0DF6E82
:10019000D950010FE66E000EDA20E66EDBEC00F0BF
:1001A000E552E552E66A20EC01F0E552DFCFE6FFCA
:0601B00037EC01F0E7D777
:0A01B600D9CFE6FFDACFE6FFE1CF74
:1001C000D9FFE2CFDAFFACA2FED7FC0EDBCFE9FF0E
:1001D000FD0EDBCFEAFFEF50E66E37EC01F0E552A3
:1001E000FC0EDBCFE9FFDB2AFD0EDBCFEAFF01E3EC
:1001F000DB2AEF50E8E1E552E5CFDAFFE7CFD9FFA0
:020200001200EA
:0E020200D9CFE6FFDACFE6FFE1CFD9FFE2CF9A
:10021000DAFFE652F20E00016A17ABAC03D06A9126
:10022000ABB06A81ABB46A85ABB26A87AE50DF6EA1
:10023000DF50E552E552E5CFDAFFE7CFD9FF1200F4
:10024000FF0EE350056EEF0E01D0F30EE76EE72EC2
:1002500027EF01F00C0E046EE76AE72E2DEF01F098
:0E026000042E2CEF01F0052E25EF01F0120008
:02026E00D9CFE6
:10027000E6FFDACFE6FFE1CFD9FFE2CFDAFFACACA1
:1002800004D0AC9000016AB3AC80FD0EDB50AD6EC3
:0C029000E552E5CFDAFFE7CFD9FF1200FE
:04029C00000EF36EEF
:1002A00000EE00F0080E01D81200EA6002D0EE6AFB
:0C02B000FCD7F350E9601200EE6AFCD7A6
:0402BC0013EE00F04D
:1002C00023EE00F0F86A019C04EC00F06CEC01F005
:0802D00098EC00F0FBD71200CE
:0202D800120012
:020000040030CA
:0100000021DE
:010001000CF2
:0100020030CD
:010003001FDD
:010005008179
:010006008079
:010008000FE8
:01000900C036
:01000A000FE6
:01000B00E014
:01000C000FE4
:01000D0040B2
:00000001FF
