:020000040000FA
:060000003CEF02F01200CB
:0A0006000100A404000060000000E7
:0400100011000000DB
:0C001400D9CFE6FFE1CFD9FF030EE126B3
:10002000300EDF6E010EDB6A020EDB6A926A936AA3
:10003000946A190EE66E440EE66EEF0EE66E3EEC26
:1000400001F0E552E552E5520C0EE66EE66A2C0E22
:10005000E66EF9EC00F0E552E552E5529EAA30D08A
:10006000C8EC01F0DF6E300EDF5C04E1010EDB6AEC
:10007000020EDB6A310EDF5C05E1010EF36EDB6E12
:10008000020EDB6A320EDF5C07E1020EF36E010E38
:10009000F3CFDBFF020EDB6A330EDF5C07E1030EFA
:1000A000F36E010EF3CFDBFF020EDB6A340EDF5C72
:1000B00007E1040EF36E010EF3CFDBFF020EDB6AE5
:1000C0008A9A010EE76EDBCF14F0020EDBCF15F03B
:1000D000E7501426000E15220A0E086E096A14C095
:1000E0000DF015C00EF075EC01F00650E66EE7EC71
:1000F00001F0E5528A8A010EE76EDBCF14F0020EA2
:10010000DBCF15F0E7501426000E15220A0E086EFC
:10011000096A14C00DF015C00EF075EC01F0065020
:10012000E66EE7EC01F0E552C70EE66E15EC02F064
:10013000E5524FEC02F04AEC02F00009FCE1C4CFBA
:100140007BF0C3CF7CF0600EE66E000EE66EA2EC94
:0401500001F082D761
:0C015400060EF66E000EF76E000EF86E40
:1001600000010900F550766F0900F550776F03E143
:10017000766701D03DD00900F550716F0900F55048
:10018000726F0900F550736F09000900F550E96EB0
:100190000900F550EA6E090009000900F550746F76
:1001A0000900F550756F09000900F6CF78F0F7CF18
:1001B00079F0F8CF7AF071C0F6FF72C0F7FF73C024
:1001C000F8FF0001745302E1755307E00900F55090
:1001D000EE6E7407F8E27507F9D778C0F6FF79C0BC
:1001E000F7FF7AC0F8FF00017607000E775BBFD7F4
:0201F0001200FB
:0E01F200D9CFE6FFDACFE6FFE1CFD9FFE2CFAB
:10020000DAFFAC6AAB6AFD0EDBB0AC88DBA202D0D1
:10021000AC8CAB8CDBB4AC8EDBA602D0AB8801D04F
:10022000AB8ADBB8AC849E98DBBAAB86DBAC02D081
:100230009D8A01D09D9A9E9ADBAE02D09D8801D006
:100240009D98FB0EDB50AF6EFB0EFC0EDBCF15F066
:1002500015C014F0156A1450B06EAC8AAB8E949C25
:10026000948EAC50100B04E0AC50800B01E1948CE8
:0C027000E552E5CFDAFFE7CFD9FF12001E
:04027C00D9CFE6FFF1
:10028000DACFE6FFE1CFD9FFE2CFDAFFC26AC06A78
:10029000FC0EDB407F0B3C0BC26EFC0EDB38F00B20
:1002A000300B146EFB0EDB500F0B1410C16EFD0EE5
:1002B000DB50040DF350380B156EFD0EDB380F0BC1
:1002C000070B146EFD0EDB50800B14101510C06E62
:1002D000FC0EDBAE03D09E9C9D8CF28CC280E5525E
:0A02E000E5CFDAFFE7CFD9FF1200E7
:0602EA0009C013F008C07A
:1002F00012F008500D02F4CF07F0F3CF06F00950CA
:100300000E02F4CF09F0F3CF08F00D02F3500726E8
:10031000F4500822E86A092212500E02F350072610
:10032000F4500822E86A09220EAE9BEF01F0125049
:10033000085E1350095A13AE000C0D50085E0E50A3
:04034000095A000C4A
:0C034400D9CFE6FFDACFE6FFE1CFD9FF0A
:10035000E2CFDAFFACA2FED7FC0EDBCFE9FFFD0E49
:10036000DBCFEAFFEF50E66EFEEC01F0E552FC0E4B
:10037000DBCFE9FFDB2AFD0EDBCFEAFF01E3DB2A5F
:10038000EF50E8E1E552E5CFDAFFE7CFD9FF120001
:10039000D9CFE6FFDACFE6FFE1CFD9FFE2CFDAFF30
:1003A000E652F20E00017D17ABAC03D07D91ABB0ED
:1003B0007D81ABB47D85ABB27D87AE50DF6EDF5003
:0E03C000E552E552E5CFDAFFE7CFD9FF120094
:0203CE00FF0E20
:1003D000E350176EEF0E01D0F30EE76EE72EEEEF4F
:1003E00001F00C0E166EE76AE72EF4EF01F0162E00
:0C03F000F3EF01F0172EECEF01F012000B
:0403FC00D9CFE6FF70
:10040000DACFE6FFE1CFD9FFE2CFDAFFACAC04D020
:10041000AC9000017DB3AC80FD0EDB50AD6EE552BB
:0A042000E5CFDAFFE7CFD9FF1200A5
:06042A00D9CFE6FFDACF96
:10043000E6FFE1CFD9FFE2CFDAFFC30EC214146E9C
:10044000FD0EDB407F0B3C0B1410C26EE552E5CF76
:08045000DAFFE7CFD9FF12002B
:08045800000EF36E00EE00F04F
:10046000080E01D81200EA6002D0EE6AFCD7F35001
:08047000E9601200EE6AFCD7FE
:0804780013EE00F023EE00F08A
:10048000F86A019CAAEC00F051EC02F00AEC00F0D2
:04049000FBD7120084
:0A049400C250020B01E0010E12003D
:02049E00C28218
:0204A000120048
:0204A200120046
:0C04A4006173616461616161612121216B
:0504B0002121212100C3
:020000040030CA
:0100000021DE
:010001000CF2
:0100020030CD
:010003001FDD
:010005008179
:010006008079
:010008000FE8
:01000900C036
:01000A000FE6
:01000B00E014
:01000C000FE4
:01000D0040B2
:00000001FF
