:020000040000FA
:06000000E7EF01F0120021
:0A0006000100FA0300006000000092
:0400100014000000D8
:0C001400D9CFE6FFE1CFD9FF030EE126B3
:10002000300EDF6E010EDB6A020EDB6A926A936AA3
:10003000946A190EE66E440EE66EEF0EE66E16EC4E
:1000400001F0E552E552E5520C0EE66EE66A2C0E22
:10005000E66ED1EC00F0E552E552E5529EAA30D0B2
:1000600073EC01F0DF6E300EDF5C04E1010EDB6A41
:10007000020EDB6A310EDF5C05E1010EF36EDB6E12
:10008000020EDB6A320EDF5C07E1020EF36E010E38
:10009000F3CFDBFF020EDB6A330EDF5C07E1030EFA
:1000A000F36E010EF3CFDBFF020EDB6A340EDF5C72
:1000B00007E1040EF36E010EF3CFDBFF020EDB6AE5
:1000C0008A9A010EE66E92EC01F0E5528A8A010EE0
:1000D000E66E92EC01F0E552C70EE66EC0EC01F060
:1000E000E552FAEC01F0F5EC01F00009FCE1C4CFB7
:1000F00071F0C3CF72F0600EE66E000EE66E4DEC4E
:0401000001F0AAD789
:0C010400060EF66E000EF76E000EF86E90
:1001100000010900F550796F0900F5507A6F03E18D
:10012000796701D03DD00900F550746F0900F55092
:10013000756F0900F550766F09000900F550E96EFA
:100140000900F550EA6E090009000900F550776FC3
:100150000900F550786F09000900F6CF7BF0F7CF62
:100160007CF0F8CF7DF074C0F6FF75C0F7FF76C065
:10017000F8FF0001775302E1785307E00900F550DA
:10018000EE6E7707F8E27807F9D77BC0F6FF7CC000
:10019000F7FF7DC0F8FF00017907000E7A5BBFD73B
:0201A00012004B
:0E01A200D9CFE6FFDACFE6FFE1CFD9FFE2CFFB
:1001B000DAFFAC6AAB6AFD0EDBB0AC88DBA202D022
:1001C000AC8CAB8CDBB4AC8EDBA602D0AB8801D0A0
:1001D000AB8ADBB8AC849E98DBBAAB86DBAC02D0D2
:1001E0009D8A01D09D9A9E9ADBAE02D09D8801D057
:1001F0009D98FB0EDB50AF6EFB0EFC0EDBCF03F0C9
:1002000003C002F0036A0250B06EAC8AAB8E949CBD
:10021000948EAC50100B04E0AC50800B01E1948C38
:0C022000E552E5CFDAFFE7CFD9FF12006E
:04022C00D9CFE6FF41
:10023000DACFE6FFE1CFD9FFE2CFDAFFC26AC06AC8
:10024000FC0EDB407F0B3C0BC26EFC0EDB38F00B70
:10025000300B026EFB0EDB500F0B0210C16EFD0E59
:10026000DB50040DF350380B036EFD0EDB380F0B23
:10027000070B026EFD0EDB50800B02100310C06EE8
:10028000FC0EDBAE03D09E9C9D8CF28CC280E552AE
:0A029000E5CFDAFFE7CFD9FF120037
:06029A00D9CFE6FFDACF28
:1002A000E6FFE1CFD9FFE2CFDAFFACA2FED7FC0E2A
:1002B000DBCFE9FFFD0EDBCFEAFFEF50E66EA9ECE6
:1002C00001F0E552FC0EDBCFE9FFDB2AFD0EDBCFB0
:1002D000EAFF01E3DB2AEF50E8E1E552E5CFDAFF80
:0602E000E7CFD9FF120078
:0A02E600D9CFE6FFDACFE6FFE1CF43
:1002F000D9FFE2CFDAFFE652F20E00017E17ABAC77
:1003000003D07E91ABB07E81ABB47E85ABB27E87ED
:10031000AE50DF6EDF50E552E552E5CFDAFFE7CFB2
:04032000D9FF1200EF
:0C032400FF0EE350056EEF0E01D0F30E4B
:10033000E76EE72E99EF01F00C0E046EE76AE72EE8
:100340009FEF01F0042E9EEF01F0052E97EF01F0D4
:02035000120099
:0E035200D9CFE6FFDACFE6FFE1CFD9FFE2CF49
:10036000DAFFACAC04D0AC9000017EB3AC80FD0EE3
:10037000DB50AD6EE552E5CFDAFFE7CFD9FF1200D3
:10038000D9CFE6FFDACFE6FFE1CFD9FFE2CFDAFF40
:10039000C30EC214026EFD0EDB407F0B3C0B02103D
:0E03A000C26EE552E5CFDAFFE7CFD9FF1200BB
:0203AE00000E3F
:1003B000F36E00EE00F0080E01D81200EA6002D0E1
:0E03C000EE6AFCD7F350E9601200EE6AFCD73B
:0203CE0013EE2C
:1003D00000F023EE00F0F86A019C82EC00F0FCECE7
:0A03E00001F00AEC00F0FBD7120058
:0603EA00C250020B01E00D
:0403F000010E1200E8
:0403F400C2821200AF
:0203F8001200F1
:0603FA00617361646161A2
:0E040000616161212121212121210061610022
:020000040030CA
:0100000021DE
:010001000CF2
:0100020030CD
:010003001FDD
:010005008179
:010006008079
:010008000FE8
:01000900C036
:01000A000FE6
:01000B00E014
:01000C000FE4
:01000D0040B2
:00000001FF
