:020000040000FA
:060000001BEF01F01200ED
:020006000000F8
:08000800D9CFE6FFE1CFD9FFDB
:100010003C0EE126D950010FE96EDACFEAFF4F0E10
:10002000EE6E4E0EEE6E0D0EEE6E0A0EEE6EEE6A79
:10003000D950060FE96EDACFEAFF4F0EEE6E460E8C
:10004000EE6EEE6E0D0EEE6E0A0EEE6EEE6AD9508C
:100050000C0FE96EDACFEAFF660EEE6E6C0EEE6EF6
:10006000610EEE6E670EEE6E200EEE6E690EEE6E97
:10007000730EEE6E200EEE6E300EEE6E0D0EEE6E08
:100080000A0EEE6EEE6AD950180FE96EDACFEAFF6B
:10009000660EEE6E6C0EEE6E610EEE6E670EEE6E1E
:1000A000200EEE6E690EEE6E730EEE6E200EEE6E8C
:1000B000310EEE6E0D0EEE6E0A0EEE6EEE6AD95039
:1000C000240FE96EDACFEAFF660EEE6E6C0EEE6E6E
:1000D000610EEE6E670EEE6E200EEE6E690EEE6E27
:1000E000730EEE6E200EEE6E320EEE6E0D0EEE6E96
:1000F0000A0EEE6EEE6AD950300FE96EDACFEAFFE3
:10010000640EEE6E650EEE6E660EEE6E610EEE6EB7
:10011000750EEE6E6C0EEE6E740EEE6E0D0EEE6ED5
:100120000A0EEE6EEE6A3A0EDB6A3B0EDB6A926AEC
:10013000936A946A8A9AE66AF4EC00F0E5528A8A35
:0A014000E66AF4EC00F0E552F5D792
:06014A00060EF66E000E29
:10015000F76E000EF86E00010900F550656F09009A
:10016000F550666F03E1656701D03DD00900F55099
:10017000606F0900F550616F0900F550626F09006A
:100180000900F550E96E0900F550EA6E0900090012
:100190000900F550636F0900F550646F090009000C
:1001A000F6CF67F0F7CF68F0F8CF69F060C0F6FFE0
:1001B00061C0F7FF62C0F8FF0001635302E16453BE
:1001C00007E00900F550EE6E6307F8E26407F9D71F
:1001D00067C0F6FF68C0F7FF69C0F8FF0001650758
:0801E000000E665BBFD71200A0
:0801E800FF0EE350036EEF0E61
:1001F00001D0F30EE76EE72EFBEF00F00C0E026E5F
:10020000E76AE72E01EF01F0022E00EF01F0032E66
:06021000F9EF00F01200FE
:0A021600000EF36E00EE00F0080E7B
:1002200001D81200EA6002D0EE6AFCD7F350E96010
:060230001200EE6AFCD78B
:0A02360013EE00F023EE00F0F86A6A
:10024000019CA5EC00F029EC01F004EC00F0FBD7D8
:0202500012009A
:02025200120098
:020000040030CA
:0100000021DE
:010001000CF2
:0100020030CD
:010003001FDD
:010005008179
:010006008079
:010008000FE8
:01000900C036
:01000A000FE6
:01000B00E014
:01000C000FE4
:01000D0040B2
:00000001FF
